:020000040800F2
:100000009879002055020008514A0008A71B0008F3
:100010004F4A0008A5070008054F0008000000002F
:10002000000000000000000000000000934A0008EB
:10003000A7070008000000001F030008194B000874
:100040006F0200086F0200086F0200086F020008CC
:100050006F0200086F0200086F0200086F020008BC
:100060006F0200086F0200086F0200086F020008AC
:100070006F0200086F0200086F0200086F0200089C
:100080006F0200086F0200086F0200086F0200088C
:100090006F0200086F0200086F0200086F0200087C
:1000A0006F0200086F0200086F0200086F0200086C
:1000B0006F0200086F0200086F0200086F0200085C
:1000C0006F0200086F0200086F0200086F0200084C
:1000D0006F020008994E00086F0200086F020008C6
:1000E0006F0200086F0200086F0200086F0200082C
:1000F0006F0200086F0200086F0200086F0200081C
:100100006F0200086F0200086F0200086F0200080B
:100110006F0200086F0200086F0200086F020008FB
:100120006F0200086F0200086F0200086F020008EB
:100130006F0200086F0200086F0200086F020008DB
:100140006F0200086F0200086F0200086F020008CB
:100150006F0200086F0200086F0200086F020008BB
:100160006F0200086F0200086F0200086F020008AB
:100170006F0200086F0200086F0200080000000014
:100180006F0200086F0200086F0200086F0200088B
:100190006F0200086F0200086F0200086F0200087B
:1001A0006F0200086F0200086F02000800F002F8FA
:1001B00000F041F80AA090E8000C82448344AAF1C0
:1001C0000107DA4501D100F036F8AFF2090EBAE8BE
:1001D0000F0013F0010F18BFFB1A43F0010318477B
:1001E0000864000028640000103A24BF78C878C171
:1001F000FAD8520724BF30C830C144BF04680C602D
:10020000704700000023002400250026103A28BF74
:1002100078C1FBD8520728BF30C148BF0B60704778
:10022000782900F05F81002070471FB506F0B6F90D
:100230001FBD10B510BD00F083FA1146FFF7F5FFA2
:1002400005F028F900F0A1FA03B4FFF7F2FF03BCB0
:1002500004F070FE0948804709480047FEE7FEE7C2
:10026000FEE7FEE7FEE7FEE7FEE7FEE7FEE7FEE766
:1002700004480549054A064B70470000314B000809
:10028000AD0100089873002098790020987500202F
:100290009875002072B6704762B67047EFF3108011
:1002A00072B6704780F310887047B0FA80F07047DC
:1002B00072B64EF62250CEF2000040F2FF01C0F2BC
:1002C0000001017029480068006880F3088840F246
:1002D0003800C2F2000040F23C01C2F200010A689C
:1002E0000260106880F30988EFF3148040F0020088
:1002F00080F31488BFF36F8FBDE8F00F01BC0FBC13
:10030000BDE8005006BC62B6084719484FF080515E
:100310000160704716484FF080510160704772B617
:10032000EFF309801EF0100F08BF20ED108A40F88F
:1003300004ED20E9F00F40F23805C2F200052E6806
:10034000306040F23C01C2F200010A682A60106885
:10035000B0E8F00F50F804EB1EF0100F08BFB0EC3F
:10036000108A80F3098862B67047000008ED00E04B
:1003700004ED00E0704753EA020C00F069802DE9BB
:10038000F04B4FF00006002B1FBFB3FA83F503FAC2
:1003900005F424FA05F65E4012BF1643B2FA82F560
:1003A00002FA05F4C5F120051EBF22FA05FC44EA55
:1003B0000C04203556EA044C4FEA144418BF641C60
:1003C0004FF000084FF00009904271EB030C39D355
:1003D000002919BFB1FA81F701FA07F6B0FA80F7E0
:1003E00000FA07F6C7F120071EBF20FA07FC46EA0D
:1003F0000C062037B6FBF4FCA7EB0507103F07F00F
:100400001F0BCBF120060CFA0BFB2CFA06F644BFAF
:10041000B3460026202FA4BF5E464FF0000B5BEAD8
:10042000060C08BF4FF0010B19EB0B09ABFB027C6C
:1004300048EB0608C01B06FB02CC0BFB03CC71EBA0
:100440000C01C1E70B46024641464846BDE8F08B29
:1004500013B54FF000004FF00001AFF30080BDE88E
:100460001C4070470FB4044910B503AA029800F06D
:1004700039F910BC5DF814FB200000202DE9F04193
:100480000E460446002020622046E168884730B3CB
:10049000252805D0D4E901219047206A401CF2E7C5
:1004A000E168204600278847050018D0A5F14100E3
:1004B000192802D820354FF40067324629462046D5
:1004C0002760FFF7ADFE40B1012804D0F61D26F0ED
:1004D00007060836D8E7361DD6E72846DAE7206A49
:1004E000BDE8F08170B504460D4621461068AFF3B3
:1004F00000802188090502D50F4A7A4402E00E4A9D
:100500007A440E32002104F1240305E000F00F06C6
:100510000009965D5E54491C0028F7D1207800231D
:10052000000704D5702D02D009B1022311322046F4
:10053000BDE8704000F07DB8C2600000032A40F2C0
:10054000308010F0030C00F0158011F8013BBCF175
:10055000020F624498BF11F801CB00F8013B38BF8D
:1005600011F8013BA2F1040298BF00F801CB38BF9B
:1005700000F8013B11F0030300F02580083AC0F0B9
:10058000088051F8043B083A51F804CBA0E8081061
:10059000F5E7121D5CBF51F8043B40F8043BAFF394
:1005A0000080D20724BF11F8013B11F801CB48BFEE
:1005B00011F8012B24BF00F8013B00F801CB48BF24
:1005C00000F8012B704710B5203AC0F00B80B1E85D
:1005D0001850203AA0E81850B1E81850A0E8185078
:1005E000BFF4F5AF5FEA027C24BFB1E81850A0E881
:1005F000185044BF18C918C0BDE810405FEA827C9B
:1006000024BF51F8043B40F8043B08BF7047D207B1
:1006100028BF31F8023B48BF11F8012B28BF20F852
:10062000023B48BF00F8012B704770477047704786
:1006300070472DE9F0470D4699469246044600F171
:1006400024080168880604D5E06921F010012160C2
:1006500000E00120A84201DD471B00E00027A1695E
:100660007A1902EB0900081AA0612078C00602D4AA
:100670002046AFF30080002608E0D4E901211AF8F3
:1006800006009047206A401C761C20624E45F4DB31
:100690002078C0060AD52046AFF3008006E0D4E9F2
:1006A000012130209047206A401C2062381EA7F1AB
:1006B0000107F4DC07E0D4E9012118F805009047B0
:1006C000206A401C2062281EA5F10105F3DC2046AB
:1006D000AFF300802078000602D50220BDE8F08745
:1006E0000120FBE7074B70B50D467B4400F011F885
:1006F0000446284600F020F810B14FF0FF3070BDDE
:10070000204670BDC74C000001694A1C0261087890
:10071000704700B58FB0CDE9013100210591054941
:100720007944CDE9031011466846FFF7A7FE0FB0E4
:1007300000BD0000E5FFFFFF007B00F08000704778
:10074000754600F02BF8AE4605006946534620F08A
:100750000700854618B020B5FFF78AFDBDE82040A8
:100760004FF000064FF000074FF000084FF0000B6D
:1007700021F00701AC46ACE8C009ACE8C009ACE820
:10078000C009ACE8C0098D46704710B50446AFF308
:1007900000802046BDE81040FFF756BD0048704776
:1007A00034730020FEE7704770B5B3F5804F05D075
:1007B0006FF0704140F82210002070BD50F82230D8
:1007C000084C2340D1E9004544EA05148D688E8920
:1007D0002D0245EA064589692C430C431C4340F829
:1007E0002240E9E70000F0CFF0B50C6850F8245043
:1007F000194A1540D1E90123D1E903671A433E4361
:1008000032434E6932438E693243CE6932430E6AB7
:1008100032434E6A32438E6A3243CE6A3243CE6BE3
:1008200032430E6B32434E6B32432A43082B01D1C5
:1008300042F0400240F824204A6BB2F5801F08D1F4
:100840000A6832B14FF480720A61044902681143A8
:1008500001600020F0BD00008000E0FF00011000FA
:10086000F0B500EB820253688E8903F04044D1E971
:10087000003543EA05138D682D0245EA06452B43F2
:100880000E8A0D4D05EB065633430E7D6F0107EBC7
:10089000066633438E693343234353600268D202B2
:1008A00007D54268098A22F4700205EB0151114311
:1008B00041600020F0BD00000000F0FF2DE9F84F7E
:1008C000DFF8A091002209F1040A0AF1040B4FF0AD
:1008D0000F080BF1040E01260B6896403340B3421B
:1008E00071D14C68022C01D0122C11D1D40800EB2C
:1008F00084073D6A5407E40E08FA04FC25EA0C0557
:10090000D1F810C00CFA04FC4CEA050CC7F820C062
:1009100007685400032591F804C0A5400CF0030CAF
:10092000AF430CFA04FC4CEA070CC0F800C04F6857
:10093000012F05D0022F03D0112F01D0122F11D17A
:100940008768D1F80CC0AF430CFA04FC4CEA070CE2
:10095000C0F808C04768B7430E79C6F30016964042
:100960003E434660C668AE438D68A5403543C560CA
:100970004C68E4006FD53C4C256845F48045256003
:10098000246822F0030504F480440094374C2E19A7
:10099000D6F808789407250F08FA05F4A743344CD5
:1009A000A04201D100242EE0324CA04201D101240A
:1009B00029E0314CA04201D1022424E02F4CA04276
:1009C00002D103241FE046E02D4CA04201D10424B3
:1009D00019E02C4CA04201D1052414E02A4CA0427D
:1009E00001D106240FE0294CA04201D107240AE0DE
:1009F000274CA04201D1082405E0264CA04201D199
:100A0000092400E00A24AC403C43C6F80848D9F861
:100A100000404D464E689C43F60300D51C432C60B5
:100A2000DAF8004055464E689C43B60300D51C4397
:100A30002C60DBF800405D464E689C43F60200D512
:100A40001C432C60DEF8004075464E689C43B6029D
:100A500000D51C432C60521C102AFFF43CAFBDE8AB
:100A6000F88F0000003C0140443802400030014053
:100A7000000002400004024000080240000C024056
:100A8000001002400014024000180240001C024006
:100A900000200240002402400069084000D00120EC
:100AA00070470AB1816170470904FBE7014800689B
:100AB000704700001400002002480168491C0160D2
:100AC00070470000140000200B4810B5016841F485
:100AD00000710160016841F480610160016841F4C6
:100AE00080710160052000F0BFF90F2000F006F8CA
:100AF00000F08AF9002010BD003C024010B5044609
:100B000000F060FC4FF47A71B0FBF1F000F0DCFE15
:100B100000222146501E00F087F9002010BD2DE96B
:100B2000F041044690F8A00015460F4601281DD05C
:100B3000012684F8A060022084F8A10005EB85005E
:100B400000EBC50004EB800034223830FFF73BFD9A
:100B50002A463946204603F0C9FE2068466284F8DA
:100B6000A160002084F8A000BDE8F0810220FBE72E
:100B700070B5040004D094F8A100002510B106E07F
:100B8000012070BD84F8A050204600F06FF80220CC
:100B900084F8A1002068816921F070418161D4E965
:100BA00001100143D4E90302104301432068826924
:100BB00011438161206882682B490A408260A08AC3
:100BC000020420688368A669334313438360206866
:100BD000C2680A40C260A08B02042068C368266A0B
:100BE00033431343C360206802690A400261A08C4A
:100BF000020420680369A66A334313430361206833
:100C000042690A404261A08D010420684269236B59
:100C10001A430A43426194F83500020294F8360000
:100C200001042068C36A03F07F43C3622068C36A7B
:100C300094F83460114333430B43C3622068416B23
:100C400041F0040141632068416B41F002014163BE
:100C50002068816941F001018161C4F8A45001203C
:100C600084F8A100002070BD00F800F030B53648CF
:100C700087B00025016841F080610160006800F0E4
:100C80008060059030481438016841F4000101602B
:100C9000016801F400010591016841F00201016061
:100CA000016801F002010591016841F02001016035
:100CB000016801F020010591016841F040010160E7
:100CC000016801F040010591016841F08001016077
:100CD000016801F080010591016841F480710160B3
:100CE0000068032400F4807005902020009001200B
:100CF000CDE90204019069461448FFF7DFFD4FF487
:100D0000806000900220CDE901050E20CDE903406E
:100D100069460F48FFF7D2FD4FF40C60009069461A
:100D20000C48FFF7CBFD4FF47E40009069460A481F
:100D3000FFF7C4FD40F2F760009069460748FFF7EF
:100D4000BDFD07B030BD0000443802400004024041
:100D50000014024000180240001C02400020024023
:100D600070B5044690F8A0000E46012820D0012559
:100D700084F8A050022084F8A10003EB830000EB6C
:100D8000C30004EB800141F8386F886A3044C1E940
:100D90000102C86A1044C8601A46204603F0A6FD46
:100DA0002068456284F8A150002084F8A00070BD3E
:100DB000022070BD2DE9F041044690F8A0000F46D6
:100DC00001281FD0012584F8A050022084F8A1003A
:100DD00003EB830000EBC30004EB80010026E1E994
:100DE0000E672046C1E90262C1E90A721A4603F0A1
:100DF0007DFD2068456284F8A15084F8A060002041
:100E0000BDE8F0810220FBE708B50020009008BD96
:100E100000F01F02012191404009800000F1E02014
:100E2000C0F8001170470000F0B40E4B1B68C3F30C
:100E30000223C3F10704042C00D904241D1D072D2F
:100E400001D2002300E0DB1E012606FA04F56D1E28
:100E50000D409D409E40761E164045EA0601F0BCBE
:100E600003F0F7BD0CED00E0064A00F00701106842
:100E70004FF6FF03184040EA012003490843106081
:100E8000704700000CED00E00000FA052DE9F84382
:100E90001D48016841F0805101600068012700F0A1
:100EA00080500090380490FAA0F0DFF86080B0FA2B
:100EB00080F048F82070FFF7F9FD04464FF47A758A
:100EC000134E04E0FFF7F2FD001BA84213D8706830
:100ED000C003F7D54FF4003090FAA0F0B0FA80F0DC
:100EE00048F82070FFF7E2FD044607E0FFF7DEFD5B
:100EF000001BA84202D90320BDE8F8837068800374
:100F0000F4D50020F8E700004038024000000E420F
:100F1000007000402DE9F84F04460068DFF8788241
:100F20009E4DC10747F6C07A4FF0E0464FF0010BE7
:100F30004FF0000901D180074BD59949C1F868905D
:100F4000FFF7B4FD074604E0FFF7B0FDC01B6428BF
:100F50007ED828680001F7D420789249C0070DD0C8
:100F60009AFAAAF26068B2FA82F2904096FAA6F370
:100F7000A268B3FA83F39A40104308602078800790
:100F800018D5086896FAA6F200F0E040B2FA82F2AC
:100F9000D0406268237B920142EA036242EA007019
:100FA0000860D8F80010E26921F01F01521E1143B9
:100FB000C8F800107A49C1F868B0FFF777FD074616
:100FC00004E0FFF773FDC01B642841D828680001C6
:100FD000F7D52068410701D4000776D57049C1F8DC
:100FE0007090FFF763FD074604E0FFF75FFDC01B4D
:100FF00064282DD82868C0438000F6D520786A4F31
:1010000040074FF0706C29D5386896FAA6F100F0C9
:10101000E040B1FA81F1C8409AFAAAF22169B2FA25
:1010200082F291409CFAACF36269B3FA83F39A407E
:10103000114396FAA6F2B2FA82F290400143396067
:10104000D8F800106FF0FF0321F4F851226A00E095
:1010500079E003EB02221143C8F800102078000762
:1010600023D538689CFAACF100F07060B1FA81F1D8
:10107000C8409AFAAAF22169B2FA82F291409CFA27
:10108000ACF2B2FA82F29040014396FAA6F2A0695D
:10109000B2FA82F2904001433960D8F80010626AD7
:1010A00021F440311143C8F800103D49C1F870B037
:1010B000FFF7FCFC064604E0FFF7F8FC801B642801
:1010C00041D82868C0438000F6D42078800651D5E6
:1010D00032484F464030016841F08051016000685D
:1010E000324E00F080500090306840F480703060E4
:1010F000FFF7DCFC054604E0FFF7D8FC401B642842
:1011000021D83068C005F7D5264E143E3068218DB1
:1011100000F4407001F4407188422BD030682449BB
:1011200020F44070C1F800B00F603060800710D527
:10113000FFF7BCFC054641F2883707E0FFF7B6FC35
:10114000401BB84202D90320BDE8F88F3068800701
:10115000F4D5A06A1149C0F301220831032A13D043
:10116000086820F4F81008603068218DC1F30B0185
:10117000084330602078C00604D50E4994F82C004E
:10118000C1F8E0010020DFE70A680B4B22F4F812F7
:10119000184002430A60E7E78C38024000380240FA
:1011A0000000474284380240883802400070004006
:1011B000400E474200104742FFFCFF0F2DE9F05F51
:1011C000DFF8F8A104460F46DAF80000DFF8F081F6
:1011D00000F00F02C8B27A49814641F2883608F120
:1011E0000808BA4261D202468AF80020DAF8000004
:1011F00000F00F00B8427DD12078800707D5D8F8DD
:101200000020A36822F0F0021A43C8F800202078DA
:10121000C0072DD0606801281AD002281BD00328EF
:1012200019D009688907002964DAD8F80010474600
:1012300021F003010143C8F80010FFF737FC054611
:10124000606801280FD0022818D003281CD027E09E
:1012500009688903E7E709688901E4E7FFF726FCE5
:10126000401BB04258D83868C0F381000128F5D13E
:1012700088E0FFF71BFC401BB0424DD83868C0F334
:1012800081000228F5D17DE03868FFF70FFC401B94
:10129000B042F9D940E0FFF709FC401BB0423BD80F
:1012A000386810F00C0FF6D16CE02078800707D575
:1012B000D8F80020A36822F0F0021A43C8F80020F2
:1012C0002078C0074CD06068012828D0022829D097
:1012D000032827D009688907002949DAD8F80020AF
:1012E00022F003020243C8F80020FFF7DFFB0546A7
:1012F000606800E03CE001281DD0022829D00328C6
:1013000038D0B3464646306810F00C0F28D0FFF7AF
:10131000CDFB411B5945F6D90320BDE8F09F096874
:101320008903D9E709688901D6E7FFF7BFFB411BAD
:10133000594502D9F0E7B34646463068C0F381000C
:101340000128F2D10CE0FFF7B1FB411B594502D94E
:10135000E2E7B34646463068C0F381000228F2D186
:101360008AF80090DAF8000000F00F00B84209D0C7
:101370000120D2E744462068FFF798FB401BB042AB
:10138000F9D9C9E72078400707D5D8F80010E268F6
:1013900021F4E0511143C8F800102078000708D567
:1013A000D8F80010226921F4604141EAC201C8F86E
:1013B00000100F20FFF7A2FB0020AEE7003C024028
:1013C0000038024010B500F043F808490968F022DF
:1013D00092FAA2F201F0F001B2FA82F2D140044A8C
:1013E000515CC8400349086010BD00000838024045
:1013F000A66500080000002010B5FFF7E3FF0749CD
:1014000009684FF4E05292FAA2F201F4E051B2FA04
:1014100082F2D140024A515CC84010BD08380240F7
:10142000A665000810B5FFF7CDFF074909684FF41E
:10143000604292FAA2F201F46041B2FA82F2D14023
:10144000024A515CC84010BD08380240A665000839
:1014500030B51948006810F00C01184812D0184C2B
:1014600004290ED008290DD1134A121F11681368E0
:1014700001F03F015D0247F6C07304D5B4FBF1F003
:1014800003E0204630BDB0FBF1F01168194093FA3B
:10149000A3F3B3FA83F3D940484311684FF44032C1
:1014A00092FAA2F201F44031B2FA82F2D140491C20
:1014B0004900B0FBF1F030BD083802400024F400D0
:1014C00040787D012DE9F84F04460078DFF8FCA252
:1014D000BF4DC0074FF0000648D0DAF80010504664
:1014E000C1F38101012908D00068C0F381000228FE
:1014F0000AD1281D0068400206D52868800335D52A
:101500006068002873D031E0DFF8C49209F1020965
:1015100089F80060FFF7CAFA074641F2883804E00C
:10152000FFF7C4FAC11B41457AD828688003F7D475
:10153000207989F80000606860B1FFF7B7FA0746C4
:1015400004E0FFF7B3FAC11B4145EDD828688003DA
:10155000F7D50BE0FFF7AAFA074604E0FFF7A6FA73
:10156000C11B4145E0D828688003F7D42078DFF814
:101570006492800744D5DAF80010504611F00C0F41
:101580004FF0F80809D00068C0F3810002280BD1A1
:101590008E48001F0068400206D42868800714D5D2
:1015A000E068012823D110E0E068D0B10120C9F83B
:1015B0000000FFF77BFA074604E0FFF777FAC01B4D
:1015C0006428B1D828688007F7D5286898FAA8F267
:1015D0002169B2FA82F220F0F800914008432860B5
:1015E0000EE0C9F80060FFF761FA074605E0EAE09F
:1015F000FFF75CFAC01B642812D828688007F7D46C
:101600002078000725D5DFF8C4817348616908F1A7
:101610006C0881B101210160FFF748FA074605E037
:101620007EE0FFF743FAC01B642879D8D8F80000A1
:101630008007F6D50DE00660FFF738FA074604E0AC
:10164000FFF734FAC01B64286AD8D8F80000800776
:10165000F6D42078400753D55C483830016841F013
:10166000805101600068DFF8748100F080500090C4
:10167000D8F8001041F48071C8F80010FFF716FA8E
:10168000074604E0FFF712FAC01B642848D8D8F8D0
:101690000000C005F6D5DFF834B10BF1680B8BF80C
:1016A0000060FFF703FA074641F2883804E0FFF7CD
:1016B000FDF9C11B41457ED8DBF800008007F6D458
:1016C000207A8BF80000A06868B1FFF7EFF90746B1
:1016D00004E0FFF7EBF9C11B41456CD8DBF80000D3
:1016E0008007F6D50CE0FFF7E1F9074604E0FFF7C5
:1016F000DDF9C11B41455ED8DBF800008007F6D458
:10170000A069E8B3DAF80010C1F3810102295AD0C8
:10171000022806D0C9F86060FFF7C8F904464DE01A
:1017200049E04F46C9F86060FFF7C0F9064604E09B
:10173000FFF7BCF9801B64283DD828688001F7D4E6
:10174000D4E90701084347F6C07191FAA1F1626A32
:10175000B1FA81F18A40A16A4FF0FF3303EB5101E6
:101760004FF4403393FAA3F3B3FA83F399400A4357
:1017700010434FF0706292FAA2F2B2FA82F200E0E5
:101780001FE0E16A914008431049091F08600120E9
:101790003866FFF78BF9044604E0FFF787F9001B72
:1017A000642808D828688001F7D50AE0FFF77EF999
:1017B000001B642802D90320BDE8F88F2868800147
:1017C000F4D40020F8E70120F6E7000008380240D2
:1017D0000038024000004742800E4742007000403F
:1017E00070B515460E46040003D094F8490010B1B8
:1017F00007E0012070BD002084F84800204600F07A
:101800001BF804F108012068FEF7EEFF3146A268DC
:101810002068FFF725F8D4E901022946236BFEF77B
:10182000C3FFA168206850F8212042F0010240F86F
:101830002120002070BD00001A4800B5016887B063
:1018400041F001010160006800F0010005901548B9
:101850000838016841F008010160016801F00801E1
:101860000591016841F0100101600068694600F0CF
:10187000100005904EF2B3700090022001900120FC
:101880000290032003900C2004900748FFF716F8FD
:101890004FF68070009069460448FFF70FF807B0D4
:1018A00000BD000038380240000C02400010024029
:1018B0004FF0E0210428086903D020F004000861FB
:1018C000704740F00400FAE710B5401EB0F1807F89
:1018D00001D3012010BD4FF0E02460610F2160179B
:1018E00003F0B7F80020A06107202061002010BDA0
:1018F000704738B5016804460868CA68C0F300003C
:1019000002F4807238B132B1086848680090E06B28
:1019100040F00100E06308684A69C0F3400002F04B
:10192000010238B132B1086848680090E06B40F0BD
:101930000400E06308684A69C0F3800002F0010215
:1019400038B132B1086848680090E06B40F002009E
:10195000E06308684A69C0F3C00002F0010238B1D0
:1019600032B1086848680090E06B40F00800E0631E
:101970000868C968C0F3401001F0200118B111B126
:10198000204603F0FFF820680168C068C1F3C01169
:1019900000F0800019B110B1204603F001FA21686F
:1019A0000868CA68C0F3801002F04002012568B1DF
:1019B00062B1CA68204622F04002CA6094F8391029
:1019C00032290CD080F8395000F0ECF8E06B002898
:1019D00004D084F839502046FFF78AFF38BD222111
:1019E00080F83910F0E770B5040004D094F839009D
:1019F000002510B106E0012070BD84F83850204663
:101A000000F020F8022084F839002068C16821F431
:101A10000051C160204603F009F92068016921F4F2
:101A2000904101612068416921F02A0141612068EB
:101A3000C16841F40051C160E563012084F83900B8
:101A4000002070BD30B504460068204987B0884248
:101A500039D11F48016841F001010160006800F0C0
:101A6000010005901A481430016841F0100101602E
:101A70000068012100F0100005904FF40070009004
:101A80000220CDE9010103900720124D0490694620
:101A90002846FEF713FF2815009069462846FEF7F2
:101AA0000DFF2068C16821F04001C1602068C16855
:101AB00041F02001C1602520FFF7AAF90322114659
:101AC0002520FFF7B1F907B030BD0000001001403C
:101AD00030380240000002402DE9F047044690F8FB
:101AE000390099460D46012801D0122857D125B357
:101AF0001AB394F83800012851D0012684F83860D0
:101B00000027E76394F83900122819D0222084F8BE
:101B10003900A285E2854FF48058E08D4B46401E87
:101B2000E085A0684FF0000240454FF020012046BC
:101B300016D103F068F9B0B904E00120BDE8F087E0
:101B40003220E4E7206900282068406803D0C1B251
:101B500025F8011B12E0C0F3080125F8021B0DE077
:101B600003F051F908B10320E8E720690028206854
:101B7000406801D000F07F0005F8010BE08D0028DF
:101B8000CBD194F83900322805D084F8396084F834
:101B900038700020D2E7122084F83900F7E70220DD
:101BA000CCE770477047FEE770B51B4886B000254C
:101BB000016841F001010160016801F00101059136
:101BC000016841F004010160016801F00401059120
:101BD000016841F0800101600068032400F080008A
:101BE000059002200126CDE90204CDE90065694691
:101BF0000A48FEF763FE700303948DE861006946AE
:101C00000748FEF75BFE0C20009069460548FEF78A
:101C100055FE06B070BD00003038024000000240A2
:101C200000080240001C024070B50E490E4A0646EC
:101C300008881268002422B13046BDE8704002F0E6
:101C400037BC4D8800214543084602F05FFB02F097
:101C5000F7FBB1B2054801E00180641CAC42FBD344
:101C600070BD000000050020900400200000086006
:101C70002DE9F05F394C3A4DA071296839B102F075
:101C800037FCE88A2080288B6080BDE8F09F3349CC
:101C90002C232A2589884FF0F00949F2413A2B2656
:101CA00045F2105B4FF4305E4FF448774FF4A07864
:101CB00045F2103C4FF4F07258B1A4F80080A4F83B
:101CC0000290514501D0614529D123816581A681CA
:101CD00039E0A4F80090A4F80280514501D0614594
:101CE00008D123816581A681614531D1A4F80080A6
:101CF00062802DE0594508D1A4F808E04FF428503F
:101D000060814FF42C50A08106E0A1F5C8506338E3
:101D10001ED123816681A5812280678018E0594504
:101D200008D1A4F808E04FF4285060814FF42C50FB
:101D3000A08106E0A1F5C850633804D123816581F4
:101D4000A68127806280614502D12280A4F80280AA
:101D5000BDE8F05F002002F0FDB9000000050020A2
:101D6000900400202DE9F04F95B002F063FDFE4D88
:101D70004FF0010AA5F15009A88049F2413B45F214
:101D8000103645F2105441F6631818B102F01EFCEB
:101D900002F08BB9F5480027016841F002010160AB
:101DA000006810A900F0020000902020CDE9100A80
:101DB0000320CDE912A0EE48FEF780FD4FF0204150
:101DC0004846C9F80010EB49C0E901171021C9F8CD
:101DD0000C70C0E90471C9F818700902C9F81C70C8
:101DE000C0E909718900C0E90B71C9F83470890133
:101DF000C9E90E7146210B910F20CDE90907CDE904
:101E000002070490D8480F9702AA09A908975038EA
:101E1000FFF7E6FC322003F023FAD32002F004FBA4
:101E200002F066F9A88002F063F9A88002F060F978
:101E30004FF6FF7202EA0020A88002F059F9A98843
:101E40005F460843A880B84248D0D42002F0ECFA9C
:101E500002F04EF9A88002F04BF9A88002F048F990
:101E600002EA0020A88002F043F9A9880843A8806C
:101E7000B04233D04FF45A4002F0D6FA02F038F9AB
:101E8000A8804FF45B4002F0CFFA02F031F902EA89
:101E90000020A8804FF45C4002F0C6FA02F028F956
:101EA000A9880843A880B0F5004F7DD0A04215D086
:101EB000A12002F0B9FA02F01BF9A88002F018F98B
:101EC00002EA0020A88002F013F9A9880843A0F5CF
:101ED000AE41A880613901D1A5F80480A988A6A0E7
:101EE000FEF7C0FAA888B8427ED1CF2002F09CFA53
:101EF000002002F08DFAC12002F08AFA302002F0B0
:101F000087FAED2002F090FA642002F081FA0320B3
:101F100002F07EFA122002F07BFA812002F078FAB9
:101F2000E82002F081FA852002F072FA102002F017
:101F30006FFA7A2002F06CFACB2002F075FA3920A1
:101F400002F066FA2C2002F063FA002002F060FA38
:101F5000342002F05DFA022002F05AFAF72002F073
:101F600063FA202002F054FAEA2002F05DFA002021
:101F700002F04EFA002002F04BFAC02002F054FAB0
:101F80001B2002F045FAC12002F04EFA012002F0B7
:101F90003FFAC52002F048FA302002F039FA30202A
:101FA00002F036FAC72000E0B7E002F03DFAB720B1
:101FB00002F02EFA362002F037FA482002F028FA12
:101FC0003A2002F031FA552002F022FAB12002F054
:101FD0002BFA002002F01CFA1A2002F019FAB6209F
:101FE00002F022FA0A2000E099E002F011FAA220A1
:101FF00002F00EFAF22002F017FA002002F008FABE
:10200000262002F011FA012002F002FAE02002F08C
:102010000BFA0F2002F0FCF92A2002F0F9F928202F
:1020200002F0F6F9082002F0F3F90E2002F0F0F9C0
:10203000082002F0EDF9542002F0EAF9A92002F09C
:10204000E7F9432002F0E4F90A2002F0E1F90F2059
:1020500002F0DEF9002002F0DBF9002002F0D8F9EE
:10206000002002F0D5F9002002F0D2F9E12002F0C0
:10207000DBF9002002F0CCF9152002F0C9F9172095
:1020800002F0C6F9072002F0C3F9112002F0C0F9EE
:10209000062002F0BDF92B2002F0BAF9562002F01A
:1020A000B7F93C2002F0B4F9052002F0B1F9102094
:1020B00002F0AEF90F2002F0ABF93F2002F0A8F9D0
:1020C0003F2002F0A5F90F2002F0A2F92B2002F028
:1020D000ABF9002002F09CF9002002F099F90120F0
:1020E00002F096F93F2002F093F92A2002F09CF9C1
:1020F000002002F08DF9002002F08AF9002002F0A1
:1021000087F9EF2002F084F9112002F08DF9782090
:1021100003F0A6F8292001F00BBFAC80DEE6B04248
:102120007ED1ED2002F080F9012002F071F9FE204D
:1021300002F06EF9EE2002F077F9DE2002F068F985
:10214000212002F065F9F12002F06EF9012002F081
:102150005FF9DF2002F068F9102002F059F9C4207D
:1021600002F062F98F200FE00005002030380240B5
:1021700000040240040100A0204C43442049443A9A
:1021800025780D0A0000000002F042F9C62002F096
:102190004BF9002002F03CF9E22002F039F9E2208C
:1021A00002F036F9E22002F033F9BF2002F03CF9E8
:1021B000AA2002F02DF9B02002F036F90D2002F02D
:1021C00027F9002002F024F90D2002F021F9002067
:1021D00002F01EF9112002F01BF9002002F018F99C
:1021E000192002F015F9002002F012F9212002F066
:1021F0000FF9002002F00CF92D2002F009F900205F
:1022000002F006F93D2002F003F9002002F000F987
:102210005D2002F0FDF8002002F0FAF85D2000E0F9
:10222000FEE302F0F5F8002002F0F2F8B12002F02F
:10223000FBF8802002F0ECF8002002F0E9F88B2097
:1022400002F0E6F8002002F0E3F8962002F0E0F851
:10225000002002F0DDF8B22002F0E6F8002002F0E3
:10226000D7F8002002F0D4F8022002F0D1F80020C4
:1022700002F0CEF8032002F0CBF8002002F0C8F8FC
:10228000B32002F0D1F8002002F0C2F8002002F0E2
:10229000BFF8002002F0BCF8002002F0B9F80020DE
:1022A00002F0B6F8002002F0B3F8002002F0B0F817
:1022B000002002F0ADF8002002F0AAF8002002F0A1
:1022C000A7F8002002F0A4F8002002F0A1F80020F6
:1022D00002F09EF8002002F09BF8002002F098F82F
:1022E000002002F095F8002002F092F8002002F0A1
:1022F0008FF8002002F08CF8002002F089F800200E
:1023000002F086F8002002F083F8002002F080F846
:10231000002002F07DF8B42002F086F88B2002F055
:1023200077F8002002F074F8962002F071F800208F
:1023300002F06EF8A12002F06BF8002002F068F8BD
:10234000B52002F071F8022002F062F8002002F0DD
:102350005FF8032002F05CF8002002F059F8042036
:1023600002F056F8002002F053F8B62002F05CF8B4
:10237000002002F04DF8002002F04AF8B72002F0E9
:1023800053F8002002F044F8002002F041F83F200A
:1023900002F03EF8002002F03BF85E2002F038F830
:1023A000002002F035F8642002F032F8002002F03C
:1023B0002FF88C2002F02CF8002002F029F8AC2035
:1023C00002F026F8002002F023F8DC2002F020F8CA
:1023D000002002F01DF8702002F01AF8002002F030
:1023E00017F8902002F014F8002002F011F8EB200A
:1023F00002F00EF8002002F00BF8DC2002F008F8E2
:10240000002002F005F8B82002F00EF8002001F0DC
:10241000FFFF002001F0FCFF002001F0F9FF002089
:1024200001F0F6FF002001F0F3FF002001F0F0FFC3
:10243000002001F0EDFF002001F0EAFFBA2001F0DA
:10244000F3FF242001F0E4FF002001F0E1FF002071
:1024500001F0DEFF002001F0DBFFC12001F0E4FF0E
:10246000202001F0D5FF002001F0D2FF542001F020
:10247000CFFF002001F0CCFFFF2001F0C9FF0020BA
:1024800001F0C6FFC22001F0CFFF0A2001F0C0FF1B
:10249000002001F0BDFF042001F0BAFF002001F090
:1024A000B7FFC32001F0C0FF3C2001F0B1FF0020C6
:1024B00001F0AEFF3A2001F0ABFF002001F0A8FFD1
:1024C000392001F0A5FF002001F0A2FF372001F024
:1024D0009FFF002001F09CFF3C2001F099FF0020AD
:1024E00001F096FF362001F093FF002001F090FFED
:1024F000322001F08DFF002001F08AFF2F2001F033
:1025000087FF002001F084FF2C2001F081FF0020D4
:1025100001F07EFF292001F07BFF002001F078FF11
:10252000262001F075FF002001F072FF242001F049
:102530006FFF002001F06CFF242001F069FF0020F4
:1025400001F066FF232001F063FF002001F060FF2F
:102550003C2001F05DFF002001F05AFF362001F021
:1025600057FF002001F054FF322001F051FF0020FE
:1025700001F04EFF2F2001F04BFF002001F048FF3B
:102580002C2001F045FF002001F042FF292001F03E
:102590003FFF002001F03CFF262001F039FF002022
:1025A00001F036FF242001F033FF002001F030FF5E
:1025B000242001F02DFF002001F02AFF232001F04C
:1025C00027FF002001F024FFC42001F02DFF62202E
:1025D00001F01EFF002001F01BFF052001F018FF95
:1025E000002001F015FF842001F012FF002001F00F
:1025F0000FFFF02001F00CFF002001F009FF182070
:1026000001F006FF002001F003FFA42001F000FF0D
:10261000002001F0FDFE182001F0FAFE002001F07C
:10262000F7FE502001F0F4FE002001F0F1FE0C2036
:1026300001F0EEFE002001F0EBFE172001F0E8FEB5
:10264000002001F0E5FE952001F0E2FE002001F0FF
:10265000DFFEF32001F0DCFE002001F0D9FEE620D1
:1026600001F0D6FE002001F0D3FEC52001F0DCFE13
:10267000322001F0CDFE002001F0CAFE442001F01E
:10268000C7FE002001F0C4FE652001F0C1FE00205D
:1026900001F0BEFE762001F0BBFE002001F0B8FE86
:1026A000882001F0B5FE002001F0B2FEC62001F046
:1026B000BBFE202001F0ACFE002001F0A9FE172097
:1026C00001F0A6FE002001F0A3FE012001F0A0FE13
:1026D000002001F09DFEC72001F0A6FE002001F0C1
:1026E00097FE002001F094FE002001F091FE0020F2
:1026F00001F08EFEC82001F097FE002001F088FE58
:10270000002001F085FE002001F082FE002001F093
:102710007FFEC92001F088FE002001F079FE002034
:1027200001F076FE002001F073FE002001F070FE43
:10273000002001F06DFE002001F06AFE002001F093
:1027400067FE002001F064FE002001F061FE002021
:1027500001F05EFE002001F05BFE002001F058FE5B
:10276000002001F055FE002001F052FE002001F093
:102770004FFE002001F04CFEE02001F055FE162037
:1027800001F046FE002001F043FE1C2001F040FE57
:10279000002001F03DFE212001F03AFE002001F072
:1027A00037FE362001F034FE002001F031FE4620D5
:1027B00001F02EFE002001F02BFE522001F028FE39
:1027C000002001F025FE642001F022FE002001F02F
:1027D0001FFE7A2001F01CFE002001F019FE8B2064
:1027E00001F016FE002001F013FE992001F010FE0A
:1027F000002001F00DFEA82001F00AFE002001F0EB
:1028000007FEB92001F004FE002001F001FEC42003
:1028100001F0FEFD002001F0FBFDCA2001F0F8FDF3
:10282000002001F0F5FDD22001F0F2FD002001F0C2
:10283000EFFDD92001F0ECFD002001F0E9FDE020E2
:1028400001F0E6FD002001F0E3FDF32001F0E0FDE2
:10285000002001F0DDFDE12001F0E6FD162001F091
:10286000D7FD002001F0D4FD1C2001F0D1FD002097
:1028700001F0CEFD222001F0CBFD002001F0C8FDCB
:10288000362001F0C5FD002001F0C2FD452001F019
:10289000BFFD002001F0BCFD522001F0B9FD002079
:1028A00001F0B6FD642001F0B3FD002001F0B0FDA1
:1028B0007A2001F0ADFD002001F0AAFD8B2001F08F
:1028C000A7FD002001F0A4FD992001F0A1FD00204A
:1028D00001F09EFDA82001F09BFD002001F098FD75
:1028E000B92001F095FD002001F092FDC42001F017
:1028F0008FFD002001F08CFDCA2001F089FD002031
:1029000001F086FDD22001F083FD002001F080FD62
:10291000D82001F07DFD002001F07AFDE02001F0DB
:1029200077FD002001F074FDF32001F071FD00201F
:1029300001F06EFDE22001F077FD052001F068FD59
:10294000002001F065FD0B2001F062FD002001F088
:102950005FFD1B2001F05CFD002001F059FD3420DB
:1029600001F056FD002001F053FD442001F050FD20
:10297000002001F04DFD4F2001F04AFD002001F044
:1029800047FD612001F044FD002001F041FD792068
:1029900001F03EFD002001F03BFD882001F038FDF4
:1029A000002001F035FD972001F032FD002001F0FC
:1029B0002FFDA62001F02CFD002001F029FDB720FD
:1029C00001F026FD002001F023FDC22001F020FDD2
:1029D000002001F01DFDC72001F01AFD002001F0CC
:1029E00017FDD12001F014FD002001F011FDD620CB
:1029F00001F00EFD002001F00BFDDD2001F008FDCF
:102A0000002001F005FDF32001F002FD002001F09F
:102A1000FFFCE32001F008FD052001F0F9FC00E0D7
:102A20000AE3002001F0F4FC0A2001F0F1FC002090
:102A300001F0EEFC1C2001F0EBFC002001F0E8FCB2
:102A4000332001F0E5FC002001F0E2FC442001F01D
:102A5000DFFC002001F0DCFC502001F0D9FC00205C
:102A600001F0D6FC622001F0D3FC002001F0D0FC84
:102A7000782001F0CDFC002001F0CAFC882001F094
:102A8000C7FC002001F0C4FC972001F0C1FC00202D
:102A900001F0BEFCA62001F0BBFC002001F0B8FC58
:102AA000B72001F0B5FC002001F0B2FCC22001F01B
:102AB000AFFC002001F0ACFCC72001F0A9FC002015
:102AC00001F0A6FCD12001F0A3FC002001F0A0FC45
:102AD000D52001F09DFC002001F09AFCDD2001F0E2
:102AE00097FC002001F094FCF32001F091FC002001
:102AF00001F08EFCE42001F097FC012001F088FC3D
:102B0000002001F085FC012001F082FC002001F092
:102B10007FFC022001F07CFC002001F079FC2A20DF
:102B200001F076FC002001F073FC3C2001F070FC09
:102B3000002001F06DFC4B2001F06AFC002001F048
:102B400067FC5D2001F064FC002001F061FC742052
:102B500001F05EFC002001F05BFC842001F058FCD9
:102B6000002001F055FC932001F052FC002001F000
:102B70004FFCA22001F04CFC002001F049FCB320E6
:102B800001F046FC002001F043FCBE2001F040FCB7
:102B9000002001F03DFCC42001F03AFC002001F0CF
:102BA00037FCCD2001F034FC002001F031FCD320B3
:102BB00001F02EFC002001F02BFCDD2001F028FCB0
:102BC000002001F025FCF32001F022FC002001F0A0
:102BD0001FFCE52001F028FC002001F019FC00207A
:102BE00001F016FC002001F013FC002001F010FCA5
:102BF000022001F00DFC002001F00AFC292001F068
:102C000007FC002001F004FC3C2001F001FC002046
:102C100001F0FEFB4B2001F0FBFB002001F0F8FB74
:102C20005D2001F0F5FB002001F0F2FB742001F0C3
:102C3000EFFB002001F0ECFB842001F0E9FB002019
:102C400001F0E6FB932001F0E3FB002001F0E0FB44
:102C5000A22001F0DDFB002001F0DAFBB32001F03F
:102C6000D7FB002001F0D4FBBE2001F0D1FB0020F7
:102C700001F0CEFBC42001F0CBFB002001F0C8FB2B
:102C8000CD2001F0C5FB002001F0C2FBD32001F0F4
:102C9000BFFB002001F0BCFBDC2001F0B9FB0020F1
:102CA00001F0B6FBF32001F0B3FB002001F0B0FB14
:102CB000E62001F0B9FB112001F0AAFB002001F091
:102CC000A7FB342001F0A4FB002001F0A1FB56205B
:102CD00001F09EFB002001F09BFB762001F098FBA9
:102CE000002001F095FB772001F092FB002001F01D
:102CF0008FFB662001F08CFB002001F089FB88200F
:102D000001F086FB002001F083FB992001F080FB9D
:102D1000002001F07DFBBB2001F07AFB002001F0D8
:102D200077FB992001F074FB002001F071FB662015
:102D300001F06EFB002001F06BFB552001F068FBF9
:102D4000002001F065FB552001F062FB002001F03E
:102D50005FFB452001F05CFB002001F059FB4320A4
:102D600001F056FB002001F053FB442001F050FB22
:102D7000002001F04DFBE72001F056FB322001F06E
:102D800047FB002001F044FB552001F041FB0020EF
:102D900001F03EFB762001F03BFB002001F038FB08
:102DA000662001F035FB002001F032FB672001F0C6
:102DB0002FFB002001F02CFB672001F029FB0020F5
:102DC00001F026FB872001F023FB002001F020FB0F
:102DD000992001F01DFB002001F01AFBBB2001F03F
:102DE00017FB002001F014FB992001F011FB0020DB
:102DF00001F00EFB772001F00BFB002001F008FB37
:102E0000442001F005FB002001F002FB562001F0F8
:102E1000FFFA002001F0FCFA232001F0F9FA00206B
:102E200001F0F6FA332001F0F3FA002001F0F0FA95
:102E3000452001F0EDFA002001F0EAFAE82001F067
:102E4000F3FA002001F0E4FA002001F0E1FA992001
:102E500001F0DEFA002001F0DBFA872001F0D8FA59
:102E6000002001F0D5FA882001F0D2FA002001F00C
:102E7000CFFA772001F0CCFA002001F0C9FA6620E1
:102E800001F0C6FA002001F0C3FA882001F0C0FA70
:102E9000002001F0BDFAAA2001F0BAFA002001F0EA
:102EA000B7FABB2001F0B4FA002001F0B1FA992082
:102EB00001F0AEFA002001F0ABFA662001F0A8FAAA
:102EC000002001F0A5FA552001F0A2FA002001F03F
:102ED0009FFA552001F09CFA002001F099FA442055
:102EE00001F096FA002001F093FA442001F090FAE4
:102EF000002001F08DFA552001F08AFA002001F03F
:102F000087FAE92001F090FAAA2001F081FA002066
:102F100001F07EFA002001F07BFA002001F078FA3F
:102F2000002001F081FAAA2001F072FACF2001F00E
:102F30007BFA002001F06CFA002001F069FA002011
:102F400001F066FA002001F063FA002001F060FA57
:102F5000002001F05DFA002001F05AFA002001F093
:102F600057FA002001F054FA002001F051FA002035
:102F700001F04EFA002001F04BFA002001F048FA6F
:102F8000002001F045FA002001F042FA002001F093
:102F90003FFA002001F03CFAF02001F045FA002051
:102FA00001F036FA502001F033FA002001F030FA37
:102FB000002001F02DFA002001F02AFAF32001F0A0
:102FC00033FA002001F024FAF92001F02DFA06204E
:102FD00001F01EFA102001F01BFA292001F018FA66
:102FE000002001F015FA3A2001F01EFA552001F0F8
:102FF0000FFA112001F018FA642002F031F92920AB
:1030000001F012FA352001F00FFA002001F000FA69
:10301000512001F009FAFF2001F0FAF9532001F0E4
:1030200003FA2C2001F0F4F9552001F0FDF982207B
:1030300001F0EEF92C20FDE3A0427DD14FF4704366
:103040005521184601F006FA4FF20107AA21384629
:1030500001F000FA5221781C01F0FCF90821B81C9B
:1030600001F0F8F90121F81C01F0F4F90D214FF4F9
:10307000304001F0EFF90D214BF2010001F0EAF9C7
:103080000D214BF2020001F0E5F934214FF43640F6
:1030900001F0E0F934214BF2016001F0DBF9342159
:1030A0004BF2026001F0D6F90D214FF4314001F0EE
:1030B000D1F90D214BF2011001F0CCF90D214BF2A9
:1030C000021001F0C7F934214FF4374001F0C2F982
:1030D00034214BF2017001F0BDF934214BF2027042
:1030E00001F0B8F900214FF4324001F0B3F90021AA
:1030F0004BF2012001F0AEF900214BF2022001F069
:10310000A9F924214FF4384001F0A4F924214BF609
:10311000010001F09FF924214BF6020001F09AF919
:1031200001214FF43F4001F095F90F214FF4334056
:1031300001F090F90F2100E0FEE34BF2013001F0C5
:1031400089F90F214BF2023001F084F934214FF458
:10315000394001F07FF934214BF6011001F07AF982
:1031600034214BF6021001F075F908214FF4354077
:1031700001F070F908214BF2015001F06BF90821C0
:103180004BF2025001F066F903214FF4424001F086
:1031900061F924214FF43A4001F05CF924214BF607
:1031A000012001F057F924214BF6022001F052F9D9
:1031B00000214FF43C4001F04DF978214BF60140DD
:1031C00001F048F900214BF6024001F043F90021DB
:1031D0004FF43D4001F03EF978214BF6015001F0EB
:1031E00039F900214BF6025001F034F900214FF477
:1031F0003E4001F02FF964214BF6016001F02AF9FD
:1032000000214FF4514001F025F933214DF2011016
:1032100001F020F900214DF2021001F01BF93421D8
:103220004DF2031001F016F900214DF2041001F0E7
:1032300011F93A214DF2051001F00CF900214DF27F
:10324000061001F007F94A214DF2071001F002F9CA
:1032500000214DF2081001F0FDF85C214DF209103B
:1032600001F0F8F800214DF20A1001F0F3F8812185
:103270004DF20B1001F0EEF800214DF20C1001F0B0
:10328000E9F8A6214DF20D1001F0E4F800214DF20D
:103290000E1001F0DFF8E5214DF20F1001F0DAF821
:1032A00001214DF2101001F0D5F813214DF211104B
:1032B00001F0D0F801214DF2121001F0CBF85421A9
:1032C0004DF2131001F0C6F801214DF2141001F077
:1032D000C1F882214DF2151001F0BCF801214DF228
:1032E000161001F0B7F8CA214DF2171001F0B2F82C
:1032F00002214DF2181001F0ADF800214DF2191025
:1033000001F0A8F802214DF21A1001F0A3F80121F2
:103310004DF21B1001F09EF802214DF21C1001F03D
:1033200099F834214DF21D1001F094F802214DF26C
:103330001E1001F08FF867214DF21F1001F08AF87E
:1033400002214DF2201001F085F884214DF2211068
:1033500001F080F802214DF2221001F07BF8A42147
:103360004DF2231001F076F802214DF2241001F005
:1033700071F8B7214DF2251001F06CF802214DF2E1
:10338000261001F067F8CF214DF2271001F062F806
:1033900002214DF2281001F05DF8DE214DF22910D6
:1033A00001F058F802214DF22A1001F053F8F221F1
:1033B0004DF22B1001F04EF802214DF22C1001F0CD
:1033C00049F8FE214DF22D1001F044F803214DF291
:1033D0002E1001F03FF810214DF22F1001F03AF8B5
:1033E00003214DF2301001F035F833214DF2311048
:1033F00001F030F803214DF2321001F02BF86D216D
:103400004DF2331001F026F800214FF4524001F044
:1034100021F833214DF2012001F01CF800214DF27A
:10342000022001F017F834214DF2032001F012F8C8
:1034300000214DF2042001F00DF83A214DF2052053
:1034400001F008F800214DF2062001F003F84A21AE
:103450004DF2072000F0FEFF00214DF2082000F0A1
:10346000F9FF5C214DF2092000F0F4FF00214DF23C
:103470000A2000F0EFFF81214DF20B2000F0EAFF5F
:1034800000214DF20C2000F0E5FFA6214DF20D20A9
:1034900000F0E0FF00214DF20E2000F0DBFFE521FF
:1034A0004DF20F2000F0D6FF01214DF2102000F068
:1034B000D1FF13214DF2112000F0CCFF01214DF27C
:1034C000122000F0C7FF54214DF2132000F0C2FF7C
:1034D00001214DF2142000F0BDFF82214DF2152094
:1034E00000F0B8FF01214DF2162000F0B3FFCA2111
:1034F0004DF2172000F0AEFF02214DF2182000F02F
:10350000A9FF00214DF2192000F0A4FF02214DF285
:103510001A2000F09FFF01214DF21B2000F09AFFBE
:1035200002214DF21C2000F095FF34214DF21D20A8
:1035300000F090FF02214DF21E2000F08BFF67216A
:103540004DF21F2000F086FF02214DF2202000F0F6
:1035500081FF84214DF2212000F07CFF02214DF2F9
:10356000222000F077FFA4214DF2232000F072FF0B
:1035700002214DF2242000F06DFFB7214DF22520ED
:1035800000F068FF02214DF2262000F063FFCF21FA
:103590004DF2272000F05EFF02214DF2282000F0BE
:1035A00059FFDE214DF2292000F054FF02214DF297
:1035B0002A2000F04FFFF2214DF22B2000F04AFFAD
:1035C00002214DF22C2000F045FFFE214DF22D206E
:1035D00000F040FF03214DF22E2000F03BFF1021B0
:1035E0004DF22F2000F036FF03214DF2302000F085
:1035F00031FF33214DF2312000F02CFF03214DF239
:10360000322000F027FF6D214DF2332000F022FF21
:1036100000214FF4534000F01DFF33214DF20130E3
:1036200000F018FF00214DF2023000F013FF3421AA
:103630004DF2033000F00EFF00214DF2043000F097
:1036400009FF3A214DF2053000F004FF00214DF250
:10365000063000F0FFFE4A214DF2073000F0FAFE7E
:1036600000214DF2083000F0F5FE5C214DF20930EA
:1036700000F0F0FE00214DF20A3000F0EBFE812157
:103680004DF20B3000F0E6FE00214DF20C3000F060
:10369000E1FEA6214DF20D3000F0DCFE00214DF2DE
:1036A0000E3000F0D7FEE5214DF20F3000F0D2FED3
:1036B00001214DF2103000F0CDFE13214DF21130FA
:1036C00000F0C8FE01214DF2123000F0C3FE54217B
:1036D0004DF2133000F0BEFE01214DF2143000F027
:1036E000B9FE82214DF2153000F0B4FE01214DF2F9
:1036F000163000F0AFFECA214DF2173000F0AAFEDE
:1037000002214DF2183000F0A5FE00214DF21930D3
:1037100000F0A0FE02214DF21A3000F09BFE0121C4
:103720004DF21B3000F096FE02214DF21C3000F0ED
:1037300091FE34214DF21D3000F08CFE02214DF23D
:103740001E3000F087FE67214DF21F3000F082FE30
:1037500002214DF2203000F07DFE84214DF2213017
:1037600000F078FE02214DF2223000F073FEA42119
:103770004DF2233000F06EFE02214DF2243000F0B5
:1037800069FEB7214DF2253000F064FE02214DF2B2
:10379000263000F05FFECF214DF2273000F05AFEB8
:1037A00002214DF2283000F055FEDE214DF2293085
:1037B00000F050FE02214DF22A3000F04BFEF221C3
:1037C0004DF22B3000F046FE02214DF22C3000F07D
:1037D00041FEFE214DF22D3000F03CFE03214DF262
:1037E0002E3000F037FE10214DF22F3000F032FE67
:1037F00003214DF2303000F02DFE33214DF23130F7
:1038000000F028FE03214DF2323000F023FE6D213E
:103810004DF2333000F01EFE00214FF4544000F012
:1038200019FE33214DF2014000F014FE00214DF24B
:10383000024000E07CE300F00DFE34214DF2034035
:1038400000F008FE00214DF2044000F003FE3A2192
:103850004DF2054000F0FEFD00214DF2064000F063
:10386000F9FD4A214DF2074000F0F4FD00214DF230
:10387000084000F0EFFD5C214DF2094000F0EAFD48
:1038800000214DF20A4000F0E5FD81214DF20B4090
:1038900000F0E0FD00214DF20C4000F0DBFDA62120
:1038A0004DF20D4000F0D6FD00214DF20E4000F02B
:1038B000D1FDE5214DF20F4000F0CCFD01214DF28C
:1038C000104000F0C7FD13214DF2114000F0C2FD81
:1038D00001214DF2124000F0BDFD54214DF2134084
:1038E00000F0B8FD01214DF2144000F0B3FD82213B
:1038F0004DF2154000F0AEFD01214DF2164000F0F2
:10390000A9FDCA214DF2174000F0A4FD02214DF29D
:10391000184000F09FFD00214DF2194000F09AFD83
:1039200002214DF21A4000F095FD01214DF21B409D
:1039300000F090FD022100E0FDE24DF21C4000F09D
:1039400089FD34214DF21D4000F084FD02214DF22D
:103950001E4000F07FFD67214DF21F4000F07AFD10
:1039600002214DF2204000F075FD84214DF22140EE
:1039700000F070FD02214DF2224000F06BFDA42109
:103980004DF2234000F066FD02214DF2244000F08C
:1039900061FDB7214DF2254000F05CFD02214DF2A2
:1039A000264000F057FDCF214DF2274000F052FD98
:1039B00002214DF2284000F04DFDDE214DF229405C
:1039C00000F048FD02214DF22A4000F043FDF221B3
:1039D0004DF22B4000F03EFD02214DF22C4000F054
:1039E00039FDFE214DF22D4000F034FD03214DF252
:1039F0002E4000F02FFD10214DF22F4000F02AFD47
:103A000003214DF2304000F025FD33214DF23140CD
:103A100000F020FD03214DF2324000F01BFD6D212E
:103A20004DF2334000F016FD00214FF4554000F0F8
:103A300011FD33214DF2015000F00CFD00214DF23B
:103A4000025000F007FD34214DF2035000F002FD5A
:103A500000214DF2045000F0FDFC3A214DF20550DA
:103A600000F0F8FC00214DF2065000F0F3FC4A2172
:103A70004DF2075000F0EEFC00214DF2085000F02E
:103A8000E9FC5C214DF2095000F0E4FC00214DF20C
:103A90000A5000F0DFFC81214DF20B5000F0DAFCFF
:103AA00000214DF20C5000F0D5FCA6214DF20D5036
:103AB00000F0D0FC00214DF20E5000F0CBFCE521CF
:103AC0004DF20F5000F0C6FC01214DF2105000F0F5
:103AD000C1FC13214DF2115000F0BCFC01214DF24C
:103AE000125000F0B7FC54214DF2135000F0B2FC1C
:103AF00001214DF2145000F0ADFC82214DF2155021
:103B000000F0A8FC01214DF2165000F0A3FCCA21E0
:103B10004DF2175000F09EFC02214DF2185000F0BB
:103B200099FC00214DF2195000F094FC02214DF255
:103B30001A5000F08FFC01214DF21B5000F08AFC5E
:103B400002214DF21C5000F085FC34214DF21D5035
:103B500000F080FC02214DF21E5000F07BFC67213A
:103B60004DF21F5000F076FC02214DF2205000F083
:103B700071FC84214DF2215000F06CFC02214DF2C9
:103B8000225000F067FCA4214DF2235000F062FCAB
:103B900002214DF2245000F05DFCB7214DF225507A
:103BA00000F058FC02214DF2265000F053FCCF21CA
:103BB0004DF2275000F04EFC02214DF2285000F04B
:103BC00049FCDE214DF2295000F044FC02214DF267
:103BD0002A5000F03FFCF2214DF22B5000F03AFC4D
:103BE00002214DF22C5000F035FCFE214DF22D50FB
:103BF00000F030FC03214DF22E5000F02BFC102180
:103C00004DF22F5000F026FC03214DF2305000F011
:103C100021FC33214DF2315000F01CFC03214DF208
:103C2000325000F017FC6D214DF2335000F012FCC1
:103C300000214FF4564000F00DFC33214DF201609D
:103C400000F008FC00214DF2026000F003FC34217A
:103C50004DF2036000F0FEFB00214DF2046000F025
:103C6000F9FB3A214DF2056000F0F4FB00214DF222
:103C7000066000F0EFFB4A214DF2076000F0EAFB1E
:103C800000214DF2086000F0E5FB5C214DF2096077
:103C900000F0E0FB00214DF20A6000F0DBFB812127
:103CA0004DF20B6000F0D6FB00214DF20C6000F0ED
:103CB000D1FBA6214DF20D6000F0CCFB00214DF2AE
:103CC0000E6000F0C7FBE5214DF20F6000F0C2FB73
:103CD00001214DF2106000F0BDFB13214DF2116087
:103CE00000F0B8FB01214DF2126000F0B3FB54214B
:103CF0004DF2136000F0AEFB01214DF2146000F0B4
:103D0000A9FB82214DF2156000F0A4FB01214DF2C8
:103D1000166000F09FFBCA214DF2176000F09AFB7D
:103D200002214DF2186000F095FB00214DF2196060
:103D300000F090FB02214DF21A6000F08BFB012194
:103D40004DF21B6000F086FB02214DF21C6000F07A
:103D500081FB34214DF21D6000F07CFB02214DF20D
:103D60001E6000F077FB67214DF21F6000F072FBD0
:103D700002214DF2206000F06DFB84214DF22160A4
:103D800000F068FB02214DF2226000F063FBA421E9
:103D90004DF2236000F05EFB02214DF2246000F042
:103DA00059FBB7214DF2256000F054FB02214DF282
:103DB000266000F04FFBCF214DF2276000F04AFB58
:103DC00002214DF2286000F045FBDE214DF2296012
:103DD00000F040FB02214DF22A6000F03BFBF22193
:103DE0004DF22B6000F036FB02214DF22C6000F00A
:103DF00031FBFE214DF22D6000F02CFB03214DF232
:103E00002E6000F027FB10214DF22F6000F022FB06
:103E100003214DF2306000F01DFB33214DF2316083
:103E200000F018FB03214DF2326000F013FB6D210E
:103E30004DF2336000F00EFB5521184600F00AFBEE
:103E4000AA21384600F006FB5221781C00F002FB44
:103E50000821B81C00F0FEFA0021F81C00F0FAFA64
:103E6000CC214FF4314000F0F5FA00214BF2011063
:103E700000F0F0FA05214FF4364000F0EBFA702123
:103E80004FF4374000F0E6FA70214BF2017000F079
:103E9000E1FA01214FF4384000F0DCFA03214BF63F
:103EA000010000F0D7FA03214BF6020000F0D2FA2D
:103EB00003214BF6030000F0CDFA02214FF43C4001
:103EC00000F0C8FA00214BF6014000F0C3FA0021CF
:103ED0004BF6024000F0BEFAD0214FF4494000F00A
:103EE000B9FA02214CF6011000F0B4FA50214CF658
:103EF000021000F0AFFA50214CF6031000F0AAFABD
:103F000050214CF6041000F0A5FA00214FF4545053
:103F100000F0A0FA55214FF4685000F09BFA4FF4DE
:103F2000885000F081FA782001F0A8F94FF424506D
:103F300000F07AFAB9E04045FCD1E22000F074FAD2
:103F40001D2000F065FA022000F062FA042000F063
:103F50005FFA642001F092F9E02000F065FA012098
:103F600000F056FA0A2001F07BF9E02000F05CFA3C
:103F7000032000F04DFA0C2001F072F9012000F04E
:103F800053FA0A2001F06CF9E62000F04DFA2F20D8
:103F900000F03EFAFF2000F03BFAFF2000F038FA74
:103FA000B02000F041FA202000F032FA002000F0AA
:103FB0002FFA032000F02CFA40F21F3000F028FA0C
:103FC000012000F025FA40F2DF1000F021FA002075
:103FD00000F01EFAB42000F027FA042000F018FACE
:103FE00040F21F4000F014FA002000F011FA2E20D9
:103FF00000F00EFA002000F00BFA002000F008FAA2
:10400000002000F005FA002000F002FAB62000F0CF
:104010000BFA022000F0FCF94FF4037000F0F8F9FD
:10402000002000F0F5F9172000F0F2F9152000F05B
:10403000EFF9002000F0ECF9002000F0E9F9F020A1
:1040400000F0F2F9032000F0E3F9292000F0ECF988
:10405000D02000F0E9F9002000F0DAF9BE2000F0ED
:10406000E3F9052000F0D4F9FE2000F0D1F9012099
:1040700000F0CEF9002000F0CBF9002000F0C8F9E4
:10408000002000F0C5F9B82000F0CEF9032000F0C0
:10409000BFF9012000F0BCF9BA2000F0C5F90120F9
:1040A00000F0B6F9642000F02DF8A888584505D036
:1040B000B04203D0A04201D0404509D10420029073
:1040C0000490D9E9010202A9D9F83030FCF76CFB61
:1040D0000020FDF7CDFD0549C1F894A24FF6FF7011
:1040E000FDF7A2FD15B0BDE8F08F00000080404252
:1040F000034808B50088ADF80000BDF8000008BD11
:104100000000086010B50246BE2000F08DF90520C1
:1041100000F07EF9104602F030F99FED0C1B53ECD5
:10412000112B02F03DF902F0FBF880B200F070F9BB
:10413000012000F06DF9FF2000F06AF9002000F086
:1041400067F9BDE81040002000F062B96666666657
:1041500066660440F0B56C4D00232946AA7989882B
:1041600041F66314012A01D01AB11BE0A14202D129
:1041700018E0A14216D1082814D2DFE800F00406A6
:10418000080A0C0E101206200CE007200AE004209A
:1041900008E0052006E0012004E0002002E0032002
:1041A00000E00220A1F5134745F2103245F2105607
:1041B000413F05D0914203D0B14201D0A14277D115
:1041C000082812D2DFE800F0110406080A0C0E10CD
:1041D00080230AE0402308E0C02306E0202304E017
:1041E000602302E0A02300E0E023B14202D14FF4BB
:1041F000585000E03620914205D0B14203D0A14290
:1042000001D043F00803194600F024F9AA88A2421D
:104210000AD098062888698802D5884202D303E02C
:10422000884201D9298068806889B24241D100F072
:10423000FBF8002000F0ECF86889401C80B200F028
:10424000F3F8002000F0E4F86889801C80B200F0E8
:10425000EBF82888401EC0F30F2000F0D9F86889D9
:10426000C01C80B200F0E0F82878401EC0B200F018
:10427000CFF8A88900F0D8F8002000F0C9F8A88984
:10428000401C80B200F0D0F8002000F0C1F8A889EE
:10429000801C80B200F0C8F86888401EC0F30F2070
:1042A00000F0B6F8A889C01C80B200F0BDF822E08A
:1042B00028E000F0B9F8002000F0AAF8002000F093
:1042C000A7F82888401EC0F30F2000F0A1F8287836
:1042D000401EC0B200F09CF8A88900F0A5F80020AC
:1042E00000F096F8002000F093F86888401EC0F3B4
:1042F0000F2000F08DF8A878BDE8F040401EC0B255
:1043000000F086B8F0BD000000050020F0B53F4D7C
:104310000C460246060AA9882846270A4089A1F5C4
:104320001343413B28D0A1F5A643103B24D0A1F56F
:10433000C853633B2FD0A1F5AA43103B64D100F0D2
:1043400073F8304600F064F86889401C80B200F0D1
:104350006BF8D0B200F05CF8A88900F065F8384638
:1043600000F056F8A889401C80B200F05DF8E0B279
:10437000BDE8F04000F04CB800F056F8304600F0D0
:1043800047F8D0B200F044F8A88900F04DF838465C
:1043900000F03EF8EBE7A97929B300F045F8304684
:1043A00000F036F8D0B200F033F82888401EC0F391
:1043B0000F2000F02DF82878401EC0B200F028F839
:1043C000A88900F031F8384600F022F8E0B200F099
:1043D0001FF86888401EC0F30F2000F019F8A87875
:1043E000401EC0B2C4E72988891A491E8AB200F06B
:1043F0001BF8002000F00CF8002000F009F8100A6B
:1044000000F006F8D0B2D9E7F0BD000000050020AA
:1044100001B5BDF80000ADF80000BDF8000001498D
:10442000088008BD0000086001B5BDF80000ADF8C7
:104430000000BDF800000149088008BDFEFF0760CC
:1044400002480349008908807047000000050020E9
:10445000FEFF0760024A1080901C01807047000038
:10446000FEFF0760104810B5016886B041F00201F8
:1044700001600068012100F0020005900320CDE9F1
:104480000210CDE90001094C69462046FCF716FAF6
:10449000012211462046FCF704FB0122022120469E
:1044A000FCF7FFFA06B010BD3038024000040240AD
:1044B00008B500900548018BC08A491E8BB2401E8A
:1044C00082B20021084600F027F808BD90040020C1
:1044D00000B58DB0082309920490009306916846B8
:1044E000FCF718FD002800D001200DB000BD000031
:1044F00010B5084B1C465875A1888AB2218889B22C
:1045000020B1012801D1D9821A8310BDDA82198322
:1045100010BD0000900400202DE9F843274EDDF87F
:1045200020900024757D0DB1054606E077680D46A4
:10453000B91A1A463B1A491E5B1E306896F814C019
:10454000DFF87C80521B871A58F82CC0F66900FBF4
:10455000015006FB00C51B487F1EBFB2066846F42B
:1045600000060660006800F4000000901648066827
:1045700026F0010606604FF44036066002264663C8
:104580000764C563591AF30303EB0242491C114344
:104590004164C0F83890016841F0010101605A019E
:1045A00002E0641C944202D241688907F9D581680F
:1045B00041F002018160BDE8F88300009004002012
:1045C000240000203038024000B002402DE9FF47AF
:1045D00000F030F904460126704DA0F586404FF4F6
:1045E000F07141F21809423844D03204A4F5E04396
:1045F0004FF44870843B4FD003218C274FF4806CDC
:104600004FF4B47A6E3357D0A4F5E0484FF4A0636A
:10461000B8F118085ED0A4F50048B8F117085CD0CE
:104620004C450CD1C5E90030AF810A202882288191
:10463000E8816882698102215046FFF749FF5848A6
:104640002A68594F0280696841800220E861554814
:1046500038605248554BA8384FF00008C0E9003880
:10466000C0F80880C0F80C804C453BD14FF0805317
:10467000036139E04FF48870C5E900102E816E8126
:104680002820A8810820E8810521298282036882E8
:1046900004214FF49070D0E7C5E900012E816E81AE
:1046A0002E20A8811720E881D22028821620688237
:1046B00003214FF4C670C0E74FF41670C5E900C07F
:1046C000142028816981AF81E881A02028820C20F4
:1046D0006882B0E7C5E90030B1E74FF44070C5E942
:1046E00000C0ACE7C0F810802C89631E43616B8961
:1046F000A3F1010CC0F818C0B5F80CC06444A4F1D3
:10470000010CC0F81CC0B5F80EC06344A3F1010C45
:10471000C0F820C0A2F1010CA444C0F824C0A1F14B
:10472000010C9C44C0F828C0B5F810C06244224473
:10473000521EC2626A8A11441944491E016380F8FC
:10474000368080F8358080F834801448A838FCF72B
:104750000FFA07200621CDE90208CDE90081FF23E9
:1047600002220020396800F025F8A888002280B2D3
:1047700000902888114683B2104600F049F80020C6
:10478000FFF7B6FE0A4885F81480C0F8946204B0BA
:104790004FF0FF30BDE8F047FFF78ABE90040020DD
:1047A00000050020000000C0240000200068014037
:1047B000008040422DE9F0438DB0164614AA002433
:1047C00092E88013114D009402942A6801926D685A
:1047D000CDE904634FEA0823CDE9067303954FEA58
:1047E00009230DF1240E08938EE8260002468DF869
:1047F000324006488DF831408DF830C06946A838FF
:10480000FCF78DF90DB0BDE8F083000090040020A6
:1048100070B51E46044603460548049DFCF7A0FA01
:1048200023462A463146BDE870400148FCF7C2BA2B
:10483000E803002030B52A4887B00021026842F022
:1048400040020260026802F040020592026842F4EF
:10485000807202600068234C00F480700590402054
:10486000CDE9000101200290032003906946204613
:10487000FCF724F884201C4D009069462846FCF77C
:104880001DF840212046FCF707F90446042128467C
:10489000FCF702F944EA400480212846FCF7FCF8C2
:1048A00044EA8000C0B2062817D2DFE800F0030710
:1048B0000A0D101344F2423007B030BD47F28400B5
:1048C000FAE747F21600F7E747F21800F4E748F274
:1048D0001600F1E741F21800EEE70020ECE70000D7
:1048E000303802400018024000200240F0B5046851
:1048F0008B88E568C5F30B452B441D04882303EB27
:10490000C213E65806F47046E65004680F68E6687D
:10491000C6F30B46761C3E442E43E65003688C8952
:10492000DD68C5F30A052C4425048C2404EBC2146D
:104930001E5906F470461E5103688F68DE68C6F380
:104940000A06761C3E442E431E519423046803EB52
:10495000C213E55825F00705E55005680C69EC50D1
:1049600091F8313005681F0291F832301C040B7E3B
:104970001E069C2303EBC21355F803C04FF0000C36
:1049800045F803C091F8305034433D432543046853
:10499000E5509823046803EBC213E55825F0FF05A2
:1049A000E55005684C69EC50A023046803EBC21382
:1049B000E55840F20776B543E550D1E907452C4369
:1049C0000568EC50AC23046803EBC213E55844F8C7
:1049D00003C005684C6AEC500B698BB3012B32D0D5
:1049E000042B32D0022B30D0032B2ED0072B2CD00F
:1049F0000123B024056804EBC2142E5906F0E0260A
:104A00002E51D1E90065AD1B0E8D5D435E43ED1C5B
:104A100045EA064305682B51B423046803EBC2132F
:104A2000E5586FF30A05E5500468C96AE15000686B
:104A3000842101EBC211425842F001024250F0BD04
:104A4000FFE70423D5E70323D3E70223D1E7FEE7FB
:104A500070470907090E002806DA00F00F0000F180
:104A6000E02080F8141D704700F1E02080F8001469
:104A700070470907090E002806DA00F00F0000F160
:104A8000E02080F8141D704700F1E02080F8001449
:104A90007047704770B51E4C92B00025266846F0EE
:104AA00080562660246804F080541194194C2668BE
:104AB00046F44046266024680DF1240C04F440447A
:104AC0001194012400940194022406948CE80D00B2
:104AD0006605CDE907616846FCF7F4FC00B1FEE726
:104AE000FCF7D4F900B1FEE70CA90F2081E83100F2
:104AF0004FF4A0500F904FF48050109005210CA857
:104B0000FCF75CFB002800D0FEE712B070BD00008F
:104B1000403802400070004010B5FBF7CDFF01F0B7
:104B2000BBF801F0D5FBBDE8104001F0C3B80000B0
:104B30001048016841F4700101600F48016841F0BC
:104B4000010101600C4A00210832116002680B4B20
:104B50001A400260031D0A4A1A60026822F4802289
:104B6000026005480C30016002495806803908602F
:104B70007047000088ED00E000380240FFFFF6FEBD
:104B80001030002410B590F83910222903D03229B2
:104B900001D0022010BD8168B1F5805F11D001699C
:104BA000002901681FD0496801F07F03816A4A1C0F
:104BB00082620B70C18D491E0904090CC18518D091
:104BC0002FE00269816A002A0268526805D0D2B2D9
:104BD0000A80816A491C8162ECE7C2F308020A80FC
:104BE000816A891CF7E74A68816A4B1C83620A70F4
:104BF000E0E70168CA6822F02002CA6090F8391024
:104C0000322910D00168CA6822F48072CA60016833
:104C10004A6922F001024A61012180F83910FCF74B
:104C2000C0FF002010BD1221F7E700002DE9F04180
:104C3000044600680169E26821F440510A430261B8
:104C40002068C16849F20C6291432369A268E56952
:104C50001A4363692B431A430A43C26020684169BF
:104C600021F44072A16911434161E0696426322553
:104C7000B0F5004F484A494920681DD0884201D00C
:104C8000904269D1FCF7CEFB00EBC00101EB0010B4
:104C90006168B0468900B0FBF1F1B1FBF8F6FCF7B2
:104CA000C1FB00EBC00101EB001061688900B0FBA3
:104CB000F1F7FCF7B7FB68E0884201D0904219D1C8
:104CC000FCF7B0FB00EBC00101EB00106168B046DF
:104CD0004900B0FBF1F1B1FBF8F6FCF7A3FB00EBE8
:104CE000C00101EB001061684900B0FBF1F7FCF76F
:104CF00099FB18E0FCF780FB00EBC00101EB001012
:104D00006168B0464900B0FBF1F1B1FBF8F6FCF781
:104D100073FB00EBC00101EB001061684900B0FBC0
:104D2000F1F7FCF769FB00EBC00101EB00106168D3
:104D30004900B0FBF1F1B1FBF8F06FF01801484306
:104D400007EB800005EB0011B1FBF8F0216866F37A
:104D50001F108860BDE8F081FCF74EFB00EBC0013E
:104D600001EB00106168B0468900B0FBF1F1B1FBC6
:104D7000F8F6FCF741FB00EBC00101EB00106168A5
:104D80008900B0FBF1F7FCF737FB00EBC00101EB4A
:104D9000001061688900CCE7001401400010014058
:104DA00090F83910122903D0322901D0022070471F
:104DB0008168B1F5805F016A0BD04A1C026202680B
:104DC00009785160C18C491E0904090CC1840ED0B8
:104DD00017E009880268C1F30801516001690029E0
:104DE000016A02D0491C0162ECE7891CFBE70168FB
:104DF000CA6822F08002CA600068C16841F04001C0
:104E0000C160002070472DE9F0471D4690460F46CF
:104E10000446FBF74BFE06465FEA08004FF0000928
:104E20004FF0010808D030E0681C05D095B1FBF7C1
:104E30003DFE801BA8420DD82068006837EA0000BC
:104E4000F2D127E0681C20D025B1FBF72FFE801B94
:104E5000A8421AD92068C16821F08001C160206889
:104E6000C16821F02001C1602068C16821F480710F
:104E7000C1602068416921F00101416184F83980F5
:104E800084F838900320BDE8F0872068006837EA8E
:104E90000000D7D00020F6E738B518480068006851
:104EA000C043800622D44FF47A7301226946134826
:104EB000FCF712FE124A1088010417D441049DF831
:104EC00000104FF0000304D50A290ED140F4004031
:104ED00012E00D290ED0C0F30D04084D401CC83D52
:104EE00080B229551080C72800D913800348FCF7E9
:104EF00000FD38BD40F480401080F7E7A803002093
:104F00001C000020FEE7C14310B5491C084000F01A
:104F10005BFA401E10BD10B500F056FA401E10BDE1
:104F20005060C0E90021086070475060C0E900216E
:104F3000086070477047002807D00844401E491E8B
:104F40008843B0F1804F01D9002070470C28FCD86D
:104F50000C2070470844401E491E8843704710B516
:104F600004464868616820F00300001D0844606042
:104F7000204600F031F8204610BD4068103120F086
:104F80000300884201D301207047002070470000D1
:104F90007CB50446406801AA20F00300694600F091
:104FA000B3FADDE900130B4A02EBC11000EB8305F5
:104FB000686FC4E90202C4606C670124106904FAD6
:104FC00001F52843106102EB81009C4041692143B7
:104FD00041617CBD2066002010B5044600F077F8E2
:104FE000046010BD2DE9FC41002501952E46009579
:104FF00000283BD004460DF104086F46802806D3F4
:10500000FFF789FF411F01208840401E04443A46B3
:105010004146204600F078FA019C182C25DA144EFF
:10502000009906EB84004FF0FF32406902FA01F16B
:1050300008400BD1641C3069A24010400ED0FFF72D
:1050400062FF0446019006EB84004069FFF75BFFB6
:1050500006EBC411009001EB8000456F2E0004D0D8
:10506000DDE90021284600F011FC3046BDE8FC8156
:105070002066002010B50446FFF7AEFF416841F0FE
:1050800002014160606840F00100606010BD10B531
:10509000044600F01CF8416821F00201416060689C
:1050A00020F00100606010BD70B5054600F00FF8FB
:1050B0000446007910F0010F07D0204600F02DF8CB
:1050C00021462846FFF74BFF0546284670BD00F1F4
:1050D0000801406820F00300001F0844704770B5C5
:1050E000040018D00D46FFF748FF70B1294620464E
:1050F00000F022F805462046FFF76EFF686840F092
:10510000020068602846FFF743FF2046FFF7BFFF15
:1051100004F1080070BD002070BD1CB50446406855
:105120006A4620F0030001A900F0EEF9DDE9002154
:10513000204600F0ABFB1CBD10B500F108020B1FB0
:10514000D4184268237922F00302521A03F00303B1
:10515000121F13436360027902F003020A434260A4
:105160002046FFF787FF204610BDFBF7CEB80000B2
:10517000074810B5D0E90023064800210068FBF776
:10518000FAF805490860BDE8104000F00BB80000CF
:10519000400000200000002048000020FBF7BAB8C3
:1051A000FBF786F810B50446002000F090FA204680
:1051B000BDE8104000F07ABA30B505460398CC241B
:1051C000184420F0070001E003F8014B8342FBD3B1
:1051D000041F4FF080732360231F1D601B1F1A6084
:1051E000A0F110024FF012331360121F4FF003337F
:1051F0001360121F4FF002331360121F5B10136015
:10520000121F1160A0F124016FF002020A60091F51
:105210004FF011320A60091F1A010A60091F4FF08E
:1052200009320A60091FDA000A60091F4FF00732CD
:105230000A60091F4FF006320A60091F4FF005325D
:105240000A60990040F8441D30BD000010B50446C6
:105250000420FCF72DFB0148046010BD180000205D
:1052600070B5054600244FF47A7603E0304600F02E
:1052700005F8641CAC42F9D370BD000070B54FF066
:10528000E02500216C69094AAB6912685043AA699C
:105290009A42FCD002D2A3EB020302E0A4EB020686
:1052A0003344194413468142F1D370BD18000020E5
:1052B00000252E462C464FF47A7741E0014624A083
:1052C00033E0022C08D0032C0ED0042C12D0052C75
:1052D00023D0062C34D12BE0002D31D029461FA03D
:1052E000FBF7C0F8284629E0302000F0DFFD05007C
:1052F00026D0E3E71021502000F08EFD06001FD0DD
:10530000014619A0FBF7AEF8300703D01BA0FBF74E
:10531000A9F815E031461EA007E04021284600F01C
:105320001BFE05000CD001461EA0FBF79BF807E012
:1053300015B1284600F0C9FD16B1304600F0C5FD94
:105340003846002100F0C4FE641C012CCCD0B8E724
:10535000616C6C6F633A2025780A0000667265659F
:105360003A2025780A000000616C69676E65642048
:10537000616C6C6F633A2025780A000073686F7562
:105380006C64206E6F742068617070656E0A000036
:10539000257820697320313620616C69676E6564F9
:1053A0000A0000007265616C6C6F633A2025780A10
:1053B0000000000003490A685206FCD5C2B24A60E8
:1053C000704700000010014010B500F047FCC0F12C
:1053D000200010BDFEE700001FB5074A0749002363
:1053E0001268096809208DE80F00054A05A10748E1
:1053F00000F012FE04B010BDBC650008B8650008DE
:10540000D553000869646C65000000006805002041
:105410000349884201D101207047002070470000F5
:105420006805002002480078002800D0012070475D
:105430002C00002002480078002800D0012070478E
:105440002D00002003490968884201D101207047DE
:10545000002070473800002010B5FFF7E3FF002858
:1054600015D1FFF7E7FF002811D100F0FBFB044640
:1054700000F07CF906490860FFF7E4FF20B1204600
:10548000BDE8104000F0ECBBFFF76FFEF7E710BD82
:105490003C0000201FB5FBF717FB0823022219214F
:1054A0004FF4B470FFF7F6FAB420FFF7CFFE4FF4D5
:1054B000E13000F023FFFEF7D5FFFCF775FBFCF7AA
:1054C00051FC00F0D1FB00234FF400720549042089
:1054D0008DE80F00044A05A10A4800F09DFD00F088
:1054E0005DFCFEE778000020B1520008726563653C
:1054F000697665725F6869676865725F7072696F07
:10550000000000007802002070B515460E460446E3
:10551000802805D2E117002004EB9171891006E084
:10552000FFF7F9FC411F0C4184F02001801F30601F
:10553000296070BDF0B40C4C00263346A460C4E969
:10554000034604EB830204EBC3155661002205EB0E
:105550008207521C7C67202AF9DB5B1C182BF0DBCE
:10556000F0BC00F0CFBC00002066002070B5064DF6
:10557000002405EB041005490060406000F028FCA1
:10558000641C0A2CF5D370BD9472002070000020BA
:1055900070B504460569D4E906010A264160086031
:1055A0000020206195F840100A2905D0284600F017
:1055B00019FE85F8406070BD687C217D8842FAD074
:1055C000284600F00FFE267570BD10B50446FFF7A3
:1055D000DFFF2046BDE81040042100F057B810B5A9
:1055E0000446001D00F0FCFB08B1002001E06068EB
:1055F000303808B1407C10BD0A2010BD30B50C1DFC
:105600004A6806E0A2F13003457C5B7C9D4202D3F0
:105610001268A242F6D100F1300354685360C3E926
:10562000002423604164017C41F00201017430BD1B
:10563000D0E90C124A601160416CFFF7DFBFD0E97E
:105640000C124A60116000214164017C21F00201CA
:105650000174704710B50446007C10F0020F04D0AE
:1056600084F848102046FFF7EAFF207C10F0010F75
:1056700002D0204600F09CF9207C10F0040F04D1E9
:105680002046BDE8104000F027B810BD70B5426854
:105690000E46051D146806E03146A2F13000FFF702
:1056A000D9FF22462468AA42F6D170BD10B5401E2B
:1056B000B0F1807F0AD24FF0E02460610F216017C3
:1056C000FFF7D7F90020A0610720206110BD014637
:1056D0004FF0FF30FFF7CDB9044A417C1268527C8D
:1056E000914201D100F01CB800F002B8380000204F
:1056F00070B50446467C094800EBC605284600F014
:1057000076FB10B1304600F079F804F130002946FC
:105710002A68BDE87040FFF708BC000010050020B3
:1057200070B50546447C084800EBC406304600F0DE
:105730005EFB10B1204600F061F8314605F1300003
:10574000BDE8704000F047BB1005002010B50649C9
:1057500001EBC004204600F04AFB08B1002010BD58
:105760002068303810BD000010050020034890F874
:10577000541050F8310030387047000010050020F8
:105780000B4A0A20002182F8540002EBC100491C98
:105790000060C9B240600A29F7D30020014602EB3D
:1057A0008003401C196510F0FF00F8D0704700001E
:1057B00010050020054901EBC0000168096881421D
:1057C00001D1012070470020704700001005002023
:1057D00010B5094901EBC004204600F008FB002881
:1057E00009D120682146D0E9002353601A60BDE842
:1057F000104000F0F0BA10BD1005002030B50A4C82
:10580000410904EB810100F01F03C3F11F050123CF
:105810000A6DAB401A430A6594F85410814201D9CD
:1058200084F8540030BD00001005002070B5447CA1
:10583000416B006B144D416005EBC40208601046DB
:1058400000F0D5FA58B1600905EB800004F01F02A2
:10585000C2F11F030122016D9A409143016595F841
:105860005400A0420FD108480024503002E02034F8
:10587000E4B2001D01680029F9D0084600F0EEF9F5
:10588000204485F8540070BD1005002070B5D0E9A3
:1058900002340D4DDC60A36005EBC11404EB8204FF
:1058A000666F86420FD16367AB420CD105EB810373
:1058B0000124586904FA02F29043586103D128691F
:1058C0008C40A043286170BD2066002070B506465C
:1058D0001A48007800282FD100F0C4F90546304658
:1058E000FFF734FF04000ED0FFF792FD58B93046A1
:1058F000FFF760FF38B9FFF79DFD20B9206D38B183
:10590000401E206504D02846BDE8704000F0A8B9CC
:105910000B480068407CFFF75BFF3046FFF716FF3F
:10592000C16C09B9074909680165284600F098F972
:10593000BDE87040FFF790BD70BD0000580000202A
:105940003800002054000020002000F0F1BB00F1DE
:1059500028018162C16208310163416308318163BA
:10596000C1630A2100F8401F0021017241604161BA
:1059700081617047007C08B10020704701207047AA
:1059800010B5044652EA03000ED0D04370EA03007B
:105990000CD02046C4E9082300F046F8207C40F0F3
:1059A00001002074002010BD642010BD652010BDD2
:1059B0002DE9F041044600F055F9804604F1280035
:1059C00000F023FA08B1002101E0A16A2839D9B119
:1059D000144AA06A904217D0D4E908076FF0010278
:1059E0005510D0EB0206D1E9082365EB0705B61A7E
:1059F0009D4104D310187B41C1E9080304E06FF016
:105A000001004210C1E90802D4E90A0141600860BE
:105A1000404600F025F9207C20F001002074BDE80C
:105A2000F08100004C0000202DE9F04700241746CB
:105A3000994680462646254600F014F9C8E90879BB
:105A400017498246CC46894608680CE0A0F1280434
:105A5000D4E9082193196941FA1A7CEB010204D3B5
:105A600000681E460D464845F0D1B91B6CEB050C8D
:105A7000C8E9081C484507D034B1D4E90832591A9E
:105A800062EB0C02C4E9081208F128014268416087
:105A9000C1E9000250461160BDE8F04700F0E0B8EF
:105AA0004C0000202DE9F04105460C4600F0DAF8E4
:105AB00007461848D0E9002152196141C0E9002188
:105AC000154800F0A2F9F8B9134E306850E90212F7
:105AD00028386B1A74EB020304D30021C0E90811C3
